:020000040800F2
:1000000020080020C1010008C9010008CB01000838
:10001000CD010008CF010008D10100080000000058
:10002000000000000000000000000000D3010008F4
:10003000D501000800000000D70100086125000874
:10004000DB010008DB010008DB010008DB01000820
:10005000DB010008DB010008DB010008DB01000810
:10006000DB010008DB010008DB010008DB01000800
:10007000DB010008DB010008DB010008DB010008F0
:10008000DB010008DB010008DB010008DB010008E0
:10009000DB010008DB010008DB010008DB010008D0
:1000A000DB010008DB010008DB010008DB010008C0
:1000B000DB010008DB010008DB010008DB010008B0
:1000C000DB010008DB010008DB010008DB010008A0
:1000D000DB010008DB010008DB010008DB01000890
:1000E000DB010008DB010008DB010008DB01000880
:1000F000DB010008DB010008DB010008DB01000870
:10010000DB010008DB010008DB010008DB0100085F
:10011000DB010008DB010008DB010008DB0100084F
:10012000DB010008DB010008DB010008DB0100083F
:10013000DB010008DB010008DB010008DB0100082F
:10014000DB010008DB010008DB010008DB0100081F
:10015000DB010008DB010008DB010008DB0100080F
:10016000DB010008DB010008DB010008DB010008FF
:10017000DB010008DB010008DB010008DB010008EF
:10018000DB010008DB010008DB010008DB010008DF
:10019000DB010008DB010008DB010008DB010008CF
:1001A000DB010008DB010008DB010008DFF80CD0F0
:1001B00000F018F800480047C32B00082008002072
:1001C0000648804706480047FEE7FEE7FEE7FEE7F1
:1001D000FEE7FEE7FEE7FEE7FEE7FEE7F1250008A3
:1001E000AD010008064C074D06E0E06840F0010351
:1001F00094E8070098471034AC42F6D3FFF7DAFFD3
:100200001C2C00083C2C00084E49096821F44031A0
:100210004D4AC2F804131146D1F804134268114341
:10022000484A11600168496821F480710268516090
:1002300001684A68016942EA012102685160016867
:10024000496821F04071026851600168496882681C
:100250001143026851600168896821F400610268F5
:10026000916001688968C268114302689160016801
:10027000896821F070610268916001688968026B89
:100280001143026891600168896821F04051026859
:10029000916001688968C26A1143026891600168CF
:1002A000896821F002010268916001688A688169A9
:1002B00042EA410102689160416AA1B1016849685E
:1002C00041F40061026851600168496821F46041AD
:1002D0000268516001684A68816A491E42EA4131F8
:1002E0000268516005E00168496821F40061026814
:1002F00051600168C96A21F470010268D162016825
:10030000CA6A018C491E42EA01510268D162016841
:10031000896821F400710268916001688A68C16986
:1003200042EA4121026891600168896821F4806194
:100330000268916001688A68416942EA8121026825
:1003400091607047042301400020014030B504460D
:10035000B3F5804F16D1D1E9000540EA05108D684C
:1003600040EA05208D8940EA0545088A401E45EA95
:100370000055087D801E45EA00608D69284344F8D9
:10038000220003E06FF0704044F82200002030BDEE
:1003900010B502460023D1E901042043CC68204374
:1003A0000C6920434C6920438C692043CC6920436D
:1003B0000C6A20434C6A20438C6A2043CC6A204359
:1003C0000C6B20434C6B40EA04038868082801D179
:1003D00043F04003086842F82030486BB0F5801FB6
:1003E0000AD1086840B14FF4807008614C6B08690D
:1003F0002043146820431060002010BD30B5034630
:1004000014460022D1E9000540EA05108D6840EA53
:1004100005208D8940EA0545088A401E45EA0055B9
:10042000087D801E45EA00608D6940EA0502601C77
:1004300043F82020186800F4801038B1586820F480
:100440007002088A401E42EA00525A60002030BD05
:1004500010B5024600BF92F83C00012801D10220ED
:1004600010BD012082F83C0000BF0868092816D999
:100470001068C0680B780A3B03EB43040723A340D2
:1004800098431368D8600B780A3B03EB43038868F2
:1004900098401368DB6818431368D86013E010684D
:1004A00000690B7803EB43040723A34098431368C8
:1004B00018610B7803EB43038868984013681B6945
:1004C0001843136818614868072816D21068406BF3
:1004D0000B795B1E03EB83041F23A340984313682F
:1004E00058630B795B1E03EB83030868984013681D
:1004F0005B6B1843136858632FE048680D2816D2C9
:100500001068006B0B79DB1F03EB83041F23A340F0
:100510009843136818630B79DB1F03EB83030868A8
:10052000984013681B6B18431368186315E0106834
:10053000C06A0B790D3B03EB83041F23A340984350
:100540001368D8620B790D3B03EB8303086898406E
:100550001368DB6A18431368D862124B106898421C
:1005600008D10868122805D10F48006840F48000BF
:10057000C3F804030B4B106898420CD1086810288C
:1005800002D00868112806D10748006840F400002E
:10059000044BC3F8040300BF002082F83C0000BFF6
:1005A00000BF5DE7002001400423014010B5044670
:1005B0000CB9012010BD94F83D0010B9204600F0A0
:1005C00013F8022084F83D002046FFF71DFE0020AE
:1005D0002064012084F83D0000BF002084F83C0026
:1005E00000BF00BFE6E7000010B586B004460B4927
:1005F000206888420FD10A48006840F4807008499A
:10060000086001200190032002900020039001A9BE
:10061000044800F0FDF806B010BD000000200140C5
:10062000443802400000024070B503460024002513
:1006300000BF5879012801D1022070BD01205871F6
:1006400000BF022018710E48046840F6FE7090400A
:100650008443D1E9000640EA060505FA02F00443A6
:10066000074804600068C0269640B043044E3060DE
:100670000120187100BF0020587100BF00BFDCE7E7
:100680000074004010B504460CB9012010BD20795B
:1006900010B9204600F008F80220207100202061E7
:1006A000012020710020F1E710B586B004460B4907
:1006B000206888420FD10A48006840F0005008497D
:1006C000086030200190032002900020039001A9CF
:1006D000044800F09DF806B010BD00000074004012
:1006E000403802400000024070B5044600250CB9B5
:1006F000012070BD94F8390010B9204600F022F8AE
:10070000022084F839002068056825F440356068C7
:100710000543206805602068456B25F00705A06843
:100720000543206845632068056C6FF30D05E0689C
:100730000543206805640020E063012084F8390047
:100740000020D6E7054A0168914205D104490968AD
:1007500041F40001024A11607047000000B00240FD
:100760003038024000B585B02348006808B105B0B4
:1007700000BD0120204908602048006840F00100C9
:100780001E4908604FF6FC70009002200190002086
:10079000029003900C2004906946194800F038F844
:1007A0004FF23F0000900220019000200290039041
:1007B0000C2004906946134800F02AF846F23F20C6
:1007C0000090022001900020029003900C200490E1
:1007D00069460D4800F01CF84FF6F37000900220B7
:1007E00001900020029003900C2004906946074875
:1007F00000F00EF800BFBAE72400002038380240AD
:10080000001002400014024000180240000C024098
:10081000F0B502460B460025002400200021DCE054
:10082000012606FA01F51E6806EA0504AC426ED1FF
:100830005E68022E02D05E68122E13D1CF0802F13C
:10084000200656F827004E07F70E0F26BE40B0438D
:100850004F07FF0E1E69BE403043CF0802F120064D
:1008600046F8270010684F000326BE40B0431E79AB
:1008700006F003064F00BE40304310605E68012E54
:1008800008D05E68022E05D05E68112E02D05E6828
:10089000122E13D190684F000326BE40B0434F0084
:1008A000DE68BE4030439060506801268E40B04301
:1008B0001E79C6F300168E4030435060D0684F005A
:1008C0000326BE40B0434F009E68BE403043D06018
:1008D0005E6806F08056B6F1805F7DD1414E366885
:1008E00046F480463F4F3E603F4E8F0856F8270043
:1008F0008E07370F0F26BE40B0433C4EB24201D1A7
:1009000000262EE03A4EB24202D1012629E063E0F1
:10091000384EB24201D1022623E0374EB24201D115
:1009200003261EE0354EB24201D1042619E0344EB2
:10093000B24201D1052614E0324EB24201D1062660
:100940000FE0314EB24201D107260AE02F4EB242EB
:1009500001D1082605E02E4EB24201D1092600E061
:100960000A268F073F0FBE4030431F4E8F0846F8C0
:100970002700284E3068A0435E6806F48036B6F53E
:10098000803F00D12043234E3060361D3068A043A5
:100990005E6806F40036B6F5003F00D120431D4ED8
:1009A000361D3060361D3068A0435E6806F4801640
:1009B000B6F5801F00D12043164E08363060361D34
:1009C0003068A0435E6806F40016B6F5001F00D13B
:1009D0002043104E0C363060491C1029FFF420AF24
:1009E000F0BD0000443802400838014000000240D9
:1009F0000004024000080240000C024000100240C7
:100A00000014024000180240001C02400020024076
:100A100000240240003C014001480068704700008B
:100A20002C00002070B50446002600250CB90120DA
:100A300070BD94F8350010B9204600F081F802200E
:100A400084F835002068006820F001002168086003
:100A500000F07EFD05463848B5FBF0F6206846609C
:100A600036496068884201D8701C07E04FF49670E0
:100A700070434FF47A71B0FBF1F0401C21680862BA
:100A80002E49606888420ED860684000B5FBF0F0DF
:100A9000C0F30B00042801D204202DE06068400060
:100AA000B5FBF0F028E0A06828B9606800EB4000D2
:100AB000B5FBF0F008E0606800EBC00101EB00104E
:100AC000B5FBF0F040F48040C0F30B0008B9012002
:100AD00012E0A06828B9606800EB4000B5FBF0F0B8
:100AE00008E0606800EBC00101EB0010B5FBF0F01E
:100AF00040F4804040F400402168C861D4E9070117
:100B0000084321680860D4E903100843216888601D
:100B1000D4E9050108432168C8602068006840F0F6
:100B2000010021680860002084F83600012084F864
:100B3000350000207CE7000040420F00A086010045
:100B400010B586B004460D492068884213D10C4880
:100B5000006840F400100A490860C020019012208B
:100B6000029001200390002004900420059001A928
:100B70000448FFF74DFE06B010BD000000540040D1
:100B8000403802400004024002480068401C01490D
:100B9000086070472C00002010B50D48006840F434
:100BA00000700B4908600846006840F480600860E7
:100BB0000846006840F480700860032000F0AEF939
:100BC000002000F007F800F02FF9002010BD000011
:100BD000003C024070B5044600F09EFC4FF47A7170
:100BE000B0FBF1F5284601F046F800222146501EE0
:100BF00000F055F9002070BD70B5044600250026B0
:100C00000CB9012070BD94F8A10010B9204600F085
:100C100083F8022084F8A1002068806920F07040E9
:100C200021688861D4E901010843E168084321692A
:100C300008432168896908432168886120688068C1
:100C40003449084021688860A08A050420688068CB
:100C5000A16929430843216888602068C0682D493C
:100C600008402168C860A08B05042068C068216A1C
:100C7000294308432168C860206800692549084065
:100C800021680861A08C050420680069A16A2943D5
:100C9000084321680861206840691E4908402168AE
:100CA0004861A08D050420684069216B29430843F1
:100CB0002168486194F83500050294F8360006046E
:100CC0002068C06A00F07F402168C86246EA0500DB
:100CD00094F8341008432168C96A08432168C8623F
:100CE0002068406B40F00400216848632068406B36
:100CF00040F00200216848632068806940F00100EC
:100D0000216888610020C4F8A400012084F8A100B3
:100D1000002077E700F800F010B586B004463949A6
:100D2000206888426CD13848006840F080603649BD
:100D3000086040F2046001900220029000200390BD
:100D4000022004900E20059001A93048FFF760FDB5
:100D50004FF4806001900220029000200390022056
:100D600004900E20059001A92948FFF751FD482065
:100D700001900220029000200390022004900E2097
:100D8000059001A92348FFF743FD40F60370019049
:100D90000220029000200390022004900E20059073
:100DA00001A91D48FFF734FD4FF49840019002203F
:100DB000029000200390022004900E20059001A9CB
:100DC0001648FFF725FD4FF4C6500190022002900F
:100DD00000200390022004900E20059001A91048E5
:100DE000FFF716FD80200190022002900020039062
:100DF000022004900E20059001A90A48FFF708FD83
:100E000006B010BD00680140443802400020024096
:100E1000001402400000024000040240001C024096
:100E2000001802400008024010B5032000F076F8D8
:100E300000221146501E00F032F810BD70B5044675
:100E40000E4615460CB9012070BD94F8410010B94A
:100E5000204600F01FF804F108012068FFF798FA17
:100E60003146A2682068FFF7C9FA2946236BD4E906
:100E70000102FFF76BFAA168206850F8210040F0EA
:100E80000100A268216841F82200012084F8410095
:100E90000020D9E710B50446FFF764FC10BD2DE92A
:100EA000F05F80460D461646002701F03DFB0746E1
:100EB00039462A46334601F00700C0F1070ABAF165
:100EC000040F02D94FF0040A01E0C0F1070AD1462D
:100ED00000F1040ABAF1070F02D24FF0000A01E054
:100EE000A0F1030AD4464FF0010A0AFA09FAAAF15E
:100EF000010A0AEA020A0AFA0CFA4FF0010B0BFA8D
:100F00000CFBABF1010B0BEA030B4AEA0B04214685
:100F1000404601F011FBBDE8F09F000000BF00F06B
:100F20000702064B19684FF6FF031940044B0B43A9
:100F300043EA0221014B196000BF70470CED00E04D
:100F40000000FA0510B500241948006840F08050F0
:100F500017490860012017490864FFF75DFD044642
:100F600007E0FFF759FD001BB0F57A7F01D9032098
:100F700010BD1148406800F48030B0F5803FF0D1DA
:100F800001200C494864FFF747FD044607E0FFF7DE
:100F900043FD001BB0F57A7F01D90320E8E706483E
:100FA000406800F40030B0F5003FF0D10020DFE7EA
:100FB0004038024000000E420070004070B5044608
:100FC00000250026207800F0010020B9207800F0EC
:100FD0000200022866D10020B4498866FFF71CFD94
:100FE000054606E0FFF718FD401B642801D90320E1
:100FF00070BDAF480068C0F3C0600028F2D120780F
:1010000000F0010098B147F6C07191FAA1F1B1FA70
:1010100081F1606888404FF0E04292FAA2F2B2FAA1
:1010200082F2A16891400843A14984310860207888
:1010300000F00200022821D19D488430006800F0B1
:10104000E0404FF0E04191FAA1F1B1FA81F120FACC
:1010500001F660688101207B41EA006040EA067089
:1010600093498431086092488C30006820F01F005A
:10107000E169491E08438E498C31086001208B4983
:101080008866FFF7C9FC054606E0FFF7C5FC401B74
:10109000642801D90320ABE785480068C0F3C0602D
:1010A0000028F2D0207800F00400042804D0207832
:1010B00000F00800082873D100207C490867FFF77A
:1010C000ABFC054606E0FFF7A7FC401B642801D9EE
:1010D00003208DE776480068C0F340700028F2D105
:1010E000207800F00400042821D17148883000687D
:1010F00000F0E0404FF0E04191FAA1F1B1FA81F146
:1011000020FA01F620698101207D41EA006040EA71
:101110000670674988310860081D006820F4F8519E
:10112000206A401E41EA002061498C310860207825
:1011300000F0080008281FD15D488830006800F0E2
:1011400070604FF0706191FAA1F1B1FA81F120FA6B
:1011500001F62069800140EA0661207E41EA0070C4
:10116000534988310860081D006820F44030616AE6
:1011700008434F498C31086001204C490867FFF74C
:101180004BFC054606E0FFF747FC401B642801D9ED
:1011900003202DE746480068C0F340700028F2D0D5
:1011A000207800F02000202874D1414840300068A9
:1011B00040F080503E49403108603E48006840F4AD
:1011C00080703C490860FFF727FC054606E0FFF702
:1011D00023FC401B642801D9032009E73548006837
:1011E00000F480700028F2D031487030006800F4BC
:1011F0004070218D01F4407188420CD02C48703031
:10120000006820F4407601202B4908600020086027
:10121000274870300660A06AB0F5807F13D1FFF7D1
:10122000FBFB054608E0FFF7F7FB401B41F2883166
:10123000884201D90320DBE61D4870300068C0F306
:1012400040000028EFD000BF208D00F44070B0F5C2
:10125000407F0CD116480830006820F4F810174A77
:10126000A16A1140084312490831086007E010489C
:101270000830006820F4F8100D49083108600C4867
:1012800070300068218DC1F30B01084308497031AB
:10129000086000BF207800F01000102803D194F8F7
:1012A0002C00074908600020A2E600000000474229
:1012B0000038024000700040400E4742FFFCFF0F24
:1012C000E011474270B504460D460026904800687C
:1012D00000F00F00A8427ED28D490D7008460068CC
:1012E00000F00F00A84201D0012070BD207800F06E
:1012F0000200022807D18748006820F0F000A168AA
:10130000084384490860207800F0010000283BD0A1
:101310006068012807D17F4808380068C0F3404062
:10132000A0B90120E1E76068022807D179480838B0
:101330000068C0F3406048B90120D6E77548083816
:101340000068C0F3400008B90120CEE7714800688A
:1013500020F00300616808436E490860FFF75CFBFA
:1013600006466068012810D108E0FFF755FB801B96
:1013700041F28831884201D90320B6E76548006808
:1013800000F00C000428F0D1A2E06068022810D11F
:1013900008E0FFF741FB801B41F28831884201D908
:1013A0000320A2E75B48006800F00C000828F0D199
:1013B0008EE009E0FFF730FB801B41F28831884264
:1013C00002D9032091E706E05248006800F00C00C3
:1013D0000028EFD17CE0207800F00200022807D13D
:1013E0004C48006820F0F000A168084349490860B3
:1013F000207800F00100002860D06068012807D143
:10140000444808380068C0F34040A0B901206CE7A8
:101410006068022807D13F4808380068C0F3406080
:1014200048B9012061E73B4808380068C0F3400034
:1014300008B9012059E73748006820F003006168C7
:10144000084334490860FFF7E7FA06466068012858
:1014500010D108E0FFF7E0FA801B41F288318842A2
:1014600001D9032041E72B48006800F00C00042854
:10147000F0D123E06068022810D108E0FFF7CCFA31
:10148000801B41F28831884201D903202DE7214891
:10149000006800F00C000828F0D10FE008E0FFF72A
:1014A000BBFA801B41F28831884201D903201CE736
:1014B0001848006800F00C000028F0D114490D70A5
:1014C0000846006800F00F00A84201D001200CE798
:1014D000207800F00400042807D10E48006820F4AA
:1014E000E050E16808430B490860207800F00800EC
:1014F000082808D10748006820F46040216940EAC4
:10150000C100044908600020FFF764FB0020ECE6FE
:10151000003C02400838024000B500F045F8094997
:10152000096801F0F001F02292FAA2F2B2FA82F216
:10153000D140054A515CC84004490860084600682B
:1015400000BD0000083802400A2C000800000020FE
:1015500000B5FFF7E1FF0749096801F4E0514FF4D6
:10156000E05292FAA2F2B2FA82F2D140024A515CFF
:10157000C84000BD083802400A2C000800B5FFF73B
:10158000CBFF0749096801F460414FF4604292FAC9
:10159000A2F2B2FA82F2D140024A515CC84000BDC8
:1015A000083802400A2C000870B5002100220023F0
:1015B00000202B4C246804F00C0424B1042C04D02B
:1015C000082C48D103E0274847E0274845E0244C51
:1015D000241F246804F03F01214C241F246804F4D4
:1015E00080044FF4800595FAA5F5B5FA85F5EC4031
:1015F00084B11D4CB4FBF1F5194C241F246847F647
:10160000C076344096FAA6F6B6FA86F6F44005FBA4
:1016100004F20FE0134CB4FBF1F5114C241F2468C5
:1016200047F6C076344096FAA6F6B6FA86F6F44047
:1016300005FB04F20A4C241F246804F440344FF4E0
:10164000403595FAA5F5B5FA85F5EC40641C6300C4
:10165000B2FBF3F001E0034800BF00BF70BD000023
:10166000083802400024F40040787D0170B504463B
:101670000025207800F00100002867D0F6480068B7
:1016800000F00C0004280DD0F348006800F00C00B6
:10169000082813D1F048001F006800F48000B0F55E
:1016A000800F0BD1EC4808380068C0F34040002898
:1016B0004CD06068012849D0012070BD0020E64967
:1016C000891F0870FFF7A8F9054608E0FFF7A4F99D
:1016D000401B41F28831884201D90320EDE7DE4802
:1016E00008380068C0F340400028EFD12079DA497B
:1016F000891F08706068012814D1FFF78DF905462D
:1017000008E0FFF789F9401B41F28831884201D98E
:101710000320D2E7D04808380068C0F340400028D2
:10172000EFD013E0FFF778F9054608E0FFF774F90A
:10173000401B41F28831884201D90320BDE7C648E9
:1017400008380068C0F340400028EFD1207800F04E
:101750000200022869D1C048006800F00C0058B1AE
:10176000BD48006800F00C00082821D1BA48001FCD
:10177000006800F48000D8B9B74808380068C0F3A2
:10178000400020B1E068012801D0012095E7B2486F
:101790000838006820F0F800F82292FAA2F2B2FAB3
:1017A00082F2216991400843AB49083908603CE066
:1017B000E06828B30120A9490860FFF72DF9054624
:1017C00006E0FFF729F9401B642801D9032074E7DC
:1017D000A14808380068C0F340000028F1D09E48B6
:1017E0000838006820F0F800F82292FAA2F2B2FA63
:1017F00082F221699140084397490839086014E052
:10180000002096490860FFF707F9054606E0FFF754
:1018100003F9401B642801D903204EE78E4808389D
:101820000068C0F340000028F1D1207800F00800E3
:1018300008282CD16069A8B1012089490860FFF708
:10184000EBF8054606E0FFF7E7F8401B642801D9EE
:10185000032032E780486C300068C0F34000002865
:10186000F1D014E000207E490860FFF7D5F8054666
:1018700006E0FFF7D1F8401B642801D903201CE7DC
:1018800075486C300068C0F340000028F1D1207822
:1018900000F00400042866D16F483830006840F03A
:1018A00080506D49383108606E48006840F480709F
:1018B0006C490860FFF7B0F8054606E0FFF7ACF8A2
:1018C000401B642801D90320F7E66648006800F44D
:1018D00080700028F2D000205F4968310870FFF75F
:1018E0009BF8054608E0FFF797F8401B41F2883166
:1018F000884201D90320E0E6574868300068C0F309
:1019000040000028EFD1207A534968310870A06860
:10191000012814D1FFF780F8054608E0FFF77CF8AE
:10192000401B41F28831884201D90320C5E64A486C
:1019300068300068C0F340000028EFD013E0FFF7E4
:101940006BF8054608E0FFF767F8401B41F2883165
:10195000884201D90320B0E63F4868300068C0F3F0
:1019600040000028EFD1A069F0B33B48006800F0C8
:101970000C0008286BD0A069022852D100203749FA
:101980000866FFF749F8054606E0FFF745F8401BF3
:10199000642801D9032090E62F4808380068C0F376
:1019A00040600028F1D1206A40F0005047F6C07234
:1019B00092FAA2F2B2FA82F2616A914008430122DD
:1019C000A16AC2EB51014FF4403292FAA2F2B2FA8C
:1019D00082F291400843E16908434FF0706292FA45
:1019E000A2F2B2FA82F200E033E0E16A91400843E9
:1019F0001949091F0860012018490866FFF70CF80B
:101A0000054606E0FFF708F8401B642801D90320CB
:101A100053E6114808380068C0F340600028F1D050
:101A200017E000200D490866FEF7F6FF054606E0C0
:101A3000FEF7F2FF401B642801D903203DE606486B
:101A400008380068C0F340600028F1D101E00120AF
:101A500033E6002031E6000008380240000047422B
:101A6000800E47420070004010B504460CB90120BA
:101A700010BD607910B9204600F00CF802206071AA
:101A80002068006840F0040021680860012060714F
:101A90000020EDE7054A0168914205D10449096833
:101AA00041F04001024A11607047000000080650F2
:101AB0003438024010B504460CB9012010BD94F82A
:101AC000510010B9204600F037F8022084F8510088
:101AD0002068006820F0400021680860D4E9010116
:101AE0000843E16808432169084361690843218B81
:101AF00001F400710843E1690843216A0843A16ABF
:101B00000843216808600421A06901EA1040616A65
:101B10000843216848602168E06A08612068C0695C
:101B200020F400602168C861002084F85200012080
:101B300084F851000020C1E710B586B004462F4953
:101B40002068884223D12E48006840F480402C4908
:101B500008600420019002200290002003900220DF
:101B600004900520059001A92648FEF751FE4FF488
:101B70000050019002200290002003900220049067
:101B80000520059001A92048FEF742FE34E01F49D8
:101B90002068884215D11A48006840F4004018496E
:101BA00008604FF4A05001900220029000200390A2
:101BB000022004900620059001A91248FEF728FE95
:101BC0001AE013492068884216D10D48001D0068AC
:101BD00040F480100A49091D08604FF460700190BC
:101BE000022002900020039002200490052005901E
:101BF00001A90848FEF70CFE06B010BD00380040F1
:101C0000403802400008024000040240003C00400E
:101C1000005001400014024070B504460E461546BF
:101C20000CB9012070BD94F8410010B9204600F0B5
:101C30001CF804F108012068FEF7AAFB3146A268EF
:101C40002068FEF7DBFB2946236BD4E90102FEF78F
:101C50007DFBA168206850F8210040F00100A268D7
:101C6000216841F822000020DCE710B50446FEF7A9
:101C700079FD10BD704770B504462546681EB0F169
:101C8000807F01D301200FE0681E4FF0E021486102
:101C90000F214FF0FF3000F04FFC00204FF0E0210B
:101CA000886107200861002070BD10B5FFF7E2FFD2
:101CB00010BD024600BF92F83800012801D1022071
:101CC0007047012082F8380000BF022082F83900F6
:101CD0001068406820F07000136858601068406811
:101CE0000B681843136858601068806820F0800003
:101CF00013689860106880684B6818431368986090
:101D0000012082F8390000BF002082F8380000BFAF
:101D100000BFD5E710B504460CB9012010BD94F8FA
:101D2000390010B9204600F00DF8022084F839007F
:101D3000211D206800F08EFC012084F8390000206D
:101D4000ECE7000010B586B00446194920688842C7
:101D500006D11848006840F001001649086025E0E7
:101D60002068B0F1804F08D11248001F006840F091
:101D700001001049091F086018E00F4920688842D7
:101D800014D10C48001F006840F002000949091FE7
:101D900008604020019002200290002003900490EF
:101DA0000220059001A90548FEF732FD06B010BDDE
:101DB0000000014044380240000400400008024096
:101DC0002DE9F04104460D46002600BF94F8380086
:101DD000012802D10220BDE8F081012084F83800FA
:101DE00000BF022084F839002068866826F0770654
:101DF00026F47F4620688660286850283BD00CDC9B
:101E0000202860D004DC002853D0102865D155E08C
:101E100030285DD0402860D141E0602835D070285E
:101E20000DD0B0F5805F03D0B0F5005F55D115E05F
:101E30002068806820F00700216888604EE0D5E9BE
:101E400002136A68206800F077FC2068866826F034
:101E5000770646F07706206886603FE0D5E90213F2
:101E60006A68206800F068FC2068806840F4804060
:101E70002168886032E0EA686968206800F052FDF5
:101E80005021206800F064FC28E0EA686968206856
:101E900000F05DFD6021206800F05AFC1EE0EA6859
:101EA0006968206800F03EFD4021206800F050FC89
:101EB00014E00021206800F04BFC0FE010212068A6
:101EC00000F046FC0AE02021206800F041FC05E01B
:101ED0003021206800F03CFC00E000BF00BF012082
:101EE00084F8390000BF002084F8380000BF00BF2C
:101EF00071E770B504460D46164600BF94F83800E9
:101F0000012801D1022070BD012084F8380000BFF3
:101F1000022084F8390036B1042E1BD0082E31D0AF
:101F20000C2E5ED145E02946206800F01BFC20689D
:101F3000806940F00800216888612068806920F08D
:101F40000400216888612068806929690843216844
:101F5000886147E02946206800F03CFC20688069E1
:101F600040F40060216888612068806920F4806006
:101F70002168886120688069296940EA0120216818
:101F800088612FE02946206800F060FC2068C06965
:101F900040F008002168C8612068C06920F0040092
:101FA0002168C8612068C069296908432168C8613F
:101FB00018E02946206800F085FC2068C06940F4DC
:101FC00000602168C8612068C06920F480602168D1
:101FD000C8612068C069296940EA01202168C86198
:101FE00000E000BF00BF012084F8390000BF0020DE
:101FF00084F8380000BF00BF85E710B504460CB96F
:10200000012010BD94F8390010B9204600F00CF8FA
:10201000022084F83900211D206800F01BFB0120FC
:1020200084F839000020ECE7704710B504460CB97D
:10203000012010BDA06900B100E000BF94F8390094
:1020400010B9204600F026F8022084F839002068F4
:10205000C06820F400502168C860204600F08EFC63
:102060002068006920F49040216808612068406978
:1020700020F02A00216848612068C06840F40050C0
:102080002168C860002084F83A00012084F83900F3
:102090000020CEE710B586B004460D49206888427E
:1020A00013D10C48006840F010000A4908604FF452
:1020B000C06001900220029001200390049007204C
:1020C000059001A90448FEF7A3FB06B010BD00006F
:1020D0000010014044380240000002401FB5104883
:1020E000104908600020486000210E4881600161AD
:1020F00081614162C162C160012101620021C1614F
:1021000001214161FEF752FA002000900120019068
:102110000020029069460348FEF79AF91FBD0000AF
:1021200000200140300000201CB50A480A49086020
:102130000846FEF7A7FA00200090019000226946A9
:102140000548FEF771FA102269460348FEF76CFA5B
:102150001CBD0000007400407400002010B507484A
:1021600007490860002048600221054881604FF45B
:10217000A071C160FEF7B8FA10BD000000B00240C7
:102180008800002000B587B04FF020402C4908603F
:102190002C4848600020886000212948C160016106
:1021A0001021416100218161C1610162416281624E
:1021B000C162016341638163C1630F20009001909C
:1021C000FF2002900F200390102004901120059012
:1021D00000200690002269461948FFF71DFD4FF0C8
:1021E0002040194908601748486002208860002193
:1021F0001548C16008210161102141610021816100
:10220000C161016241628162C16201634FF40041B8
:10221000416300218163C1630F2000900190FF2082
:1022200002900F20039010200490112005900020B0
:102230000690002269460448FEF700FE07B000BD84
:1022400094030020040100A0DC030020174800686C
:1022500040F01000154908600846006840F004008E
:1022600008600846006840F480700860084600680E
:1022700040F0200008600846006840F080000860D8
:102280000846006840F0010008600846006840F019
:10229000020008600846006840F0400008600846F8
:1022A000006840F0080008607047000030380240C5
:1022B00010B50A480A4908600A48486000210848E1
:1022C0008160C1604FF48041016100214161816101
:1022D000C16180210162FEF7A5FB10BD00540040E2
:1022E000C8000020A086010010B5154815490860F7
:1022F000002048600021134881604FF00051C16008
:102300000021016107214161032181610E21C16129
:102310000521016240F28E21416240F2E5118162A5
:102320004FF42571C16240F2E7110163002180F88A
:10233000341080F8351080F83610FEF75DFC10BDC3
:10234000006801400001002010B5034803490860FF
:102350000846FFF789FB10BD000806501400002056
:1023600010B50C480C4908604FF4827048604FF477
:102370008061094881600021C160016141614FF4C1
:10238000007181610021C161016241628162FFF7D8
:1023900091FB10BD00380040A801002010B50B488B
:1023A0000B4908604FF48270486000210848816042
:1023B000C160016141614FF4007181610021C1611F
:1023C000016241628162FFF775FB10BD003C004075
:1023D000FC01002010B50B480B4908604FF48270D7
:1023E0004860002108488160C160016141614FF48B
:1023F000007181610021C161016241628162FFF768
:1024000059FB10BD005001405002002000B587B0BC
:102410000E480F4908600020486000210C48816088
:10242000C16001614161FFF775FC4FF4805003907A
:1024300003A90748FFF7C4FC00200190029001A9FE
:102440000348FFF736FC07B000BD00000000014064
:10245000A402002000B587B04FF080400D4908600D
:102460000020486000210B488160C1600161FFF7D6
:1024700051FC4FF48050039003A90648FFF7A0FCDD
:1024800000200190029001A90248FFF712FC07B05A
:1024900000BD0000E002002000B58DB014481549D1
:1024A000086000204860002112488160C16001611D
:1024B000FFF730FC4FF48050099009A90D48FFF751
:1024C0007FFC0C48FFF799FD00200790089007A9B2
:1024D0000848FFF7EEFB602000900020019002907A
:1024E0000490002269460348FFF703FD0DB000BDCC
:1024F000000400401C03002010B509480949086089
:102500004FF416504860002106488160C1600161A7
:102510000C21416100218161C161FFF786FD10BD81
:10252000001001405803002002480068C0F3022058
:10253000704700000CED00E010B5002807DA0A072C
:10254000140E054A00F00F031B1FD45403E00A07C2
:10255000130E024A135410BD18ED00E000E400E031
:1025600010B5FEF711FBFFF7A0FB10BD00B59DB045
:102570001D48006840F080501B4908601B480068F7
:1025800040F4404019490860012011901290022047
:10259000179041051891192119914FF4B4711A91AE
:1025A00002211B9108211C9111A8FFF75FF8FEF78B
:1025B000C9FC0D200C9002200D9000200E904FF4CD
:1025C000A0500F90109005210CA8FEF77BFE08206C
:1025D0000090400104900521069140020990684650
:1025E000FEF7ECFC1DB000BD40380240007000401A
:1025F0001448006840F470001249086012480068EE
:1026000040F001001049086000200F4908310860BF
:102610000D4800680D4908400B4908600C48091D29
:102620000860081F006820F48020091F086000204F
:1026300005490C3108604FF000600249803908609C
:102640007047000088ED00E000380240FFFFF6FE12
:1026500010300024002202682C4B98420ED0B0F1BA
:10266000804F0BD02A4B984208D02A4B984205D075
:10267000294B984202D0294B984201D1012300E016
:1026800000231BB122F070024B681A431F4B984283
:1026900020D0B0F1804F1DD01D4B98421AD01D4B59
:1026A000984217D01C4B984214D01C4B984211D022
:1026B0001B4B98420ED01B4B98420BD01A4B9842A2
:1026C00008D01A4B984205D0194B984202D0194BAA
:1026D000984201D1012300E000231BB122F4407293
:1026E000CB681A4302608B68C3620B688362074B36
:1026F000984202D0094B984201D1012300E0002307
:102700000BB10B6903630123436170470000014073
:102710000004004000080040000C0040000401409C
:1027200000400140004401400048014000180040C2
:10273000001C00400020004030B50C46002181689C
:1027400021F47F4142EA032525432943816030BDBE
:102750000A460021816821F0700142F00703194305
:102760008160704730B5002400220023056A25F0FF
:1027700001050562026A4368846924F0700424F04C
:1027800003040D682C4322F002028D682A430F4D8A
:10279000A84202D00E4DA84201D1012500E000253B
:1027A0006DB122F00802CD682A4322F0040223F41E
:1027B000807323F400734D692B438D692B43436071
:1027C00084614D684563026230BD00000000014035
:1027D0000004014030B5002400220023056A25F0E2
:1027E00010050562026A4368846924F4E04424F415
:1027F00040740D6844EA052422F020028D6842EA04
:102800000512104DA84202D00F4DA84201D101255A
:1028100000E0002585B122F08002CD6842EA051271
:1028200022F0400223F4806323F400634D6943EAFD
:1028300085038D6943EA8503436084614D68856340
:10284000026230BD000001400004014030B50024A8
:1028500000220023056A25F480750562026A436838
:10286000C46924F0700424F003040D682C4322F49E
:1028700000728D6842EA0522104DA84202D0104D28
:10288000A84201D1012500E0002585B122F40062B3
:10289000CD6842EA052222F4806223F4805323F4B7
:1028A00000534D6943EA05138D6943EA05134360FC
:1028B000C4614D68C563026230BD00000000014084
:1028C0000004014030B5002200230024056A25F4ED
:1028D00080550562036A4468C26922F4E04222F42A
:1028E00040720D6842EA052223F400538D6843EAE2
:1028F00005330A4DA84202D0094DA84201D1012555
:1029000000E0002525B124F480444D6944EA851493
:102910004460C2614D680564036230BD000001403F
:102920000004014030B50B46144600210022026A23
:10293000056A25F001050562816921F0F00141EA8F
:10294000041122F00A021A438161026230BD30B5DF
:102950000B46144600210022056A25F01005056289
:102960008169026A21F4704141EA043122F0A00237
:1029700042EA03128161026230BD00002DE9F0419C
:1029800004460025A06900B100BF2068056925F450
:102990004055E0680543206805612068C56849F234
:1029A0000C6085432169A068084361690843E169B7
:1029B000084305432068C5602068456925F44075D3
:1029C000A069054320684561E069B0F5004F72D108
:1029D00072492068884203D071492068884234D106
:1029E000FEF7CCFD00EBC00101EB0010616849006F
:1029F000B0FBF1F06421B0FBF1F6FEF7BFFD00EB98
:102A0000C00101EB001061684900B0FBF1F7FEF76F
:102A1000B5FD00EBC00101EB001061684900B0FB9F
:102A2000F1F06421B0FBF1F000EBC00101EB00100C
:102A3000A7EB8000322101EB00106421B0FBF1F024
:102A400066F31F1021688860A6E0FEF781FD00EBA9
:102A5000C00101EB001061684900B0FBF1F0642196
:102A6000B0FBF1F6FEF774FD00EBC00101EB0010C6
:102A700061684900B0FBF1F7FEF76AFD00EBC001A9
:102A800001EB001061684900B0FBF1F06421B0FB7C
:102A9000F1F000EBC00101EB0010A7EB8000322148
:102AA00001EB00106421B0FBF1F066F31F10216808
:102AB000886071E0FFE739492068884203D03849CF
:102AC0002068884234D1FEF759FD00EBC00101EBCC
:102AD000001061688900B0FBF1F06421B0FBF1F6F1
:102AE000FEF74CFD00EBC00101EB001061688900AE
:102AF000B0FBF1F7FEF742FD00EBC00101EB001067
:102B000061688900B0FBF1F06421B0FBF1F000EBEB
:102B1000C00101EB0010A7EB8000322101EB001097
:102B20006421B0FBF1F066F31F102168886033E088
:102B3000FEF70EFD00EBC00101EB0010616889009B
:102B4000B0FBF1F06421B0FBF1F6FEF701FD00EB04
:102B5000C00101EB001061688900B0FBF1F7FEF7DE
:102B6000F7FC00EBC00101EB001061688900B0FBCD
:102B7000F1F06421B0FBF1F000EBC00101EB0010BB
:102B8000A7EB8000322101EB00106421B0FBF1F0D3
:102B900066F31F1021688860BDE8F08100100140D5
:102BA0000014014002E008C8121F08C1002AFAD12F
:102BB00070477047002001E001C1121F002AFBD1BD
:102BC0007047FDF7E9FFFFF7D1FCFFF73FFBFFF789
:102BD00085FAFFF7A9FAFFF7C1FAFFF7D3FAFFF773
:102BE00067FBFFF781FBFFF7AFFBFFF7B9FBFFF7D1
:102BF000D5FBFFF7EFFBFFF709FCFFF72BFCFFF717
:102C00004BFCFFF779FC00BFFEE70000000001026B
:102C10000304010203040607080900003C2C000815
:102C20000000002030000000A42B00086C2C0008DD
:102C300030000020F0070000B42B00080024F4004E
:102C4000000000000000000001020304060708095C
:102C50000000000000000000000000000000000074
:0C2C600000000000000000000000000068
:04000005080001AD41
:00000001FF
